:020000040000FA
:10000000800200106901000071010000730100000E
:100010007501000077010000790100000000000078
:100020000000000000000000000000007B01000054
:100030007D010000000000007F0100008101000040
:1000400083010000830100008301000083010000A0
:100050008301000083010000830100008301000090
:100060008301000083010000830100008301000080
:100070008301000083010000830100008301000070
:100080008301000083010000830100008301000060
:100090008301000083010000830100008301000050
:1000A0008301000083010000830100008301000040
:1000B0008301000083010000830100008301000030
:1000C00083010000830100008301000000F002F8BA
:1000D00000F03AF80AA090E8000C82448344AAF1A8
:1000E0000107DA4501D100F02FF8AFF2090EBAE8A6
:1000F0000F0013F0010F18BFFB1A43F0010318475C
:10010000600A0000800A0000103A24BF78C878C155
:10011000FAD8520724BF30C830C144BF04680C600D
:10012000704700000023002400250026103A28BF55
:1001300078C1FBD8520728BF30C148BF0B60704759
:100140001FB51FBD10B510BD00F0D6FC1146FFF75E
:10015000F7FF00F0C3F900F0F4FC03B4FFF7F2FF7F
:1001600003BC00F0F5FC000009488047094800473F
:10017000FEE7FEE7FEE7FEE7FEE7FEE7FEE7FEE757
:10018000FEE7FEE704480549034A054B70470000B7
:100190004D080000CD00000080000010800200101B
:1001A0008000001000BF3F49097D11F0200FFAD0F8
:1001B0000A280CD10D213B4A117000BF3949097D35
:1001C00011F0200FFAD00A21364A117001E03549AA
:1001D0000870704710B503460C46D8B2FFF7E2FF2F
:1001E000184610BD00BF2F48007D10F0010FFAD057
:1001F0002C480078704710B50446FFF7F3FF03461C
:100200001846FFF7CFFF184610BD2748006840F09A
:100210005000254908608320224908730C2008708B
:10022000002008710846007A40F007000872F220AA
:100230001E4908701B48007B20F080001949087394
:10024000704700204FF0402108671820C860022046
:100250004860704702204FF040214860012048600C
:10026000704700204FF04021486008468068704782
:1002700002214FF0402251600121516000BF4FF038
:10028000402189688142FAD300214FF04022516019
:10029000704700B503464FF47A7103FB01F0FFF796
:1002A000E7FF00BD00C0004000C0024028C0004081
:1002B000002100E0491C8142FCDB7047002107E07F
:1002C000002200E0521C44F620639A42FAD3491CF3
:1002D0008142F5D37047421E12F8013F002BFBD13B
:1002E00011F8013B002B02F8013BF9D17047704730
:1002F00070477047004870471C000010FFFFFFFF69
:100300000021D24A116004E0D0490968491CCF4A53
:100310001160CE4909688142F6D3704710B5CC48C8
:100320000078C005CB494861CB48006818B94FF048
:100330000060C86103E04FF00060C64988614FF07B
:100340008050C44988613220FFF7B2FF4FF08050DF
:10035000C049C861C148FFF7D3FF10BD10B5C04800
:10036000007800F0F000BA490870084600780011E3
:100370000870FFF7D3FFBB480068032801D90120AC
:1003800000E00020B4490968012900D100E0002103
:10039000084307D0B248007800F00F00AC4908705D
:1003A000FFF7BCFF10BD3EB50446AFA207CA8DE8FB
:1003B0000700B0484068B0490840AE494860A548C9
:1003C000006840F0FC50A34908600020A249086082
:1003D000A44908600CE0A34909681DF80100A04980
:1003E0000870FFF7BBFF9F480068401C9D490860EC
:1003F0009C4800680928EED3012097490860002036
:10040000984908600BE097480068205C94490870A0
:10041000FFF7A4FF93480068401C92490860914888
:100420000068205C0028EED13EBD2DE9F041044675
:100430000D4617464FF000086619FFF70BFF67B12E
:1004400005E04FF040208068B04200D904E08148C8
:10045000406910F0100FF4D10CE005E04FF040209F
:100460008068B04200D904E07A48406910F0100F6B
:10047000F4D000BFFFF7F5FE8046601B404501D871
:10048000B04502DD7DA0FFF78EFFBDE8F08110B51D
:100490000024002205213220FFF7C7FFFFF7DAFE14
:1004A00006E04FF0402080684B2801D9022010BDA3
:1004B0006848406910F0100FF3D1FFF7D2FE0446F0
:1004C000112C03DD252C01DA0020F0E7412C03DD9F
:1004D0004B2C01DA0120EAE70220E8E78CB0282162
:1004E00002A800F0E2FA00200090019000F0AEF9BE
:1004F00000F0D8F8FFF7A5FEA7E05E4840680020AE
:100500005C4948605348006840F010005149086059
:100510000846C06940F01000C86144F25060FFF71F
:10052000A7FE4C48006820F010004A490860FFF719
:1005300091FE05E04FF040208068282800D904E0B3
:100540004448406910F0100FF4D100BFFFF789FE56
:100550004D490860084600680A2803D30846006829
:10056000282802D949A0FFF71EFF002205215020AC
:10057000FFF75BFF012205215020FFF756FF002007
:100580003849086019E0FFF782FF424908700846C1
:10059000007818B108460078012806D13D48007857
:1005A00002A9304A1268885402E03BA0FFF7FBFE24
:1005B0002C480068401C2B4908602A4800682828FD
:1005C000E1D3002033490870264908602FE000205D
:1005D0001E49086019E01D48006822490968082280
:1005E00002FB010002A9085C50B118480068C0F184
:1005F00007010120884027490978084325490870E8
:1006000012480068401C114908601048006808281A
:10061000E1D320480078134A12680DF80200002048
:100620001C4908700F480068401C0E4908600D48BE
:1006300000680528CBD31AA16846FFF74CFE684630
:10064000FFF7B1FE0548FFF713FE56E71400001050
:100650000A00001000C009201000001040420F00E6
:10066000090000100000001030303020280C010676
:100670008000000000C00240FF3F00FC72616E6716
:10068000656F757400000000040000104661696C1D
:1006900065640000080000104572726F720000006F
:1006A000204800002DE9F047B1480068C0F3016020
:1006B00003287CD1AF48006810F0030006D0012861
:1006C00033D002285FD003282ED100E000BFA84815
:1006D0000068C0F3074000F101044FF00201A64892
:1006E000D0F88800C0F30E0000F10100A1FB00016A
:1006F000A24B4FF0000CA0FB037901FB039100FB20
:100700000C1122466346384600F058F905469C48CD
:100710000068C0B200F1010422464FF000032846F1
:1007200000F04CF9974908605DE091480068C0F31B
:10073000074000F101044FF002018F48D0F8880013
:10074000C0F30E0000F10100A1FB00108E4A4FF033
:10075000000CA1FB027900FB029001FB0C01224678
:100760006346384600F02AF9054685480068C0B25D
:1007700000F1010422464FF00003284600F01EF964
:10078000804908602FE07A480068C0F3074000F114
:1007900001044FF002017848D0F88800C0F30E0041
:1007A00000F10100A1FB00124FF4004000E01BE04B
:1007B0004FF00003A1FB007902FB009001FB030155
:1007C0002246384600F0FAF805466D480068C0B287
:1007D00000F1010422464FF00003284600F0EEF835
:1007E0006849086000BF2FE06248006810F003000D
:1007F00006D0012810D0022819D0032823D100E008
:1008000000BF5F480068C0B200F101005B49B1FB66
:10081000F0F05C49086016E059480068C0B200F189
:1008200001005949B1FBF0F0564908600BE054480B
:100830000068C0B200F101004FF40041B1FBF0F0DC
:100840005049086000BF00BFBDE8F08720204F4935
:1008500008604948D0F8A00110F0200F05D000BF73
:100860004A48006810F0400FFAD00320444908605D
:100870004FF000004049C1F8A801454908604FF019
:1008800001003C4908604348434908604FF0AA0012
:10089000424908604FF0550008604FF001004049A0
:1008A00008604FF0AA003D4908604FF055003249FA
:1008B000C1F88C0000BF2E48006810F0806FFAD09D
:1008C0000320374908604FF0AA002B49C1F88C007B
:1008D0004FF055003149086000BF2548006800F01E
:1008E0004070B0F1407FF8D123202E4908604FF0CE
:1008F000AA002149C1F8AC004FF055002A49086010
:100900004FF00100294908604FF0AA00264908600D
:100910004FF055001849C1F8AC0000BF24480068EA
:1009200010F4806FFAD00320204908604FF0AA002D
:100930001149C1F8AC004FF055001B49086000BFD9
:100940001B48006800F44070B0F5407FF8D11948AA
:10095000194908604FF000000749C1F8C80108466E
:10096000006820F4704040F4804008607047000048
:1009700088C00F400CC10F4000C00F4000093D006F
:1009800004C10F4018000010001BB700A0C10F40A9
:10099000ACC10F406300050084C00F408CC00F4005
:1009A00080C00F40A4C00F40ACC00F40A0C00F409B
:1009B000A8C00F40DE872804C4C00F4053EA020CD1
:1009C00000F069802DE9F04B4FF00006002B1FBFAF
:1009D000B3FA83F503FA05F424FA05F65E4012BF74
:1009E0001643B2FA82F502FA05F4C5F120051EBFDE
:1009F00022FA05FC44EA0C04203556EA044C4FEA7E
:100A0000144418BF641C4FF000084FF000099042D6
:100A100071EB030C39D3002919BFB1FA81F701FA40
:100A200007F6B0FA80F700FA07F6C7F120071EBFF5
:100A300020FA07FC46EA0C062037B6FBF4FCA7EBCD
:100A40000507103F07F01F0BCBF120060CFA0BFB3C
:100A50002CFA06F644BFB3460026202FA4BF5E46FC
:100A60004FF0000B5BEA060C08BF4FF0010B19EBCF
:100A70000B09ABFB027C48EB0608C01B06FB02CC53
:100A80000BFB03CC71EB0C01C1E70B460246414660
:100A90004846BDE8F08B13B54FF000004FF0000161
:100AA000AFF30080BDE81C4070474FF0000200B576
:100AB000134694469646203922BFA0E80C50A0E881
:100AC0000C50B1F12001BFF4F7AF090728BFA0E82F
:100AD0000C5048BF0CC05DF804EB890028BF40F8FB
:100AE000042B08BF704748BF20F8022B11F0804F3D
:100AF00018BF00F8012B70477546FFF7FBFBAE46A9
:100B000005006946534620F00700854618B020B519
:100B1000FFF738FBBDE820404FF000064FF000071C
:100B20004FF000084FF0000B21F00701AC46ACE895
:100B3000C009ACE8C009ACE8C009ACE8C0098D4602
:100B400070470446AFF300802046FFF706FB000025
:100B500001491820ABBEFEE72600020070470000E6
:100B6000800B0000000000101C00000008010000C5
:100B70009C0B00001C000010640200002401000017
:100B80000000000000000000000000000000000065
:0C0B9000000000000000000000E1F5057E
:04000005000001698D
:00000001FF
