:020000040000FA
:100000008002001071010000790100007B010000F6
:100010007D0100007F010000810100000000000060
:10002000000000000000000000000000830100004C
:100030008501000000000000870100008901000028
:100040008B0100008B0100008B0100008B01000080
:100050008B0100008B0100008B0100008B01000070
:100060008B0100008B0100008B0100008B01000060
:100070008B0100008B0100008B0100008B01000050
:100080008B0100008B0100008B0100008B01000040
:100090008B0100008B0100008B0100008B01000030
:1000A0008B0100008B0100008B0100008B01000020
:1000B0008B0100008B0100008B0100008B01000010
:1000C0008B0100008B0100008B01000000F002F8A2
:1000D00000F03FF80AA090E8000C82448344AAF1A3
:1000E0000107DA4501D100F034F8AFF2090EBAE8A1
:1000F0000F0013F0010F18BFFB1A43F0010318475C
:10010000C40B0000E40B0000103A24BF78C878C18B
:10011000FAD8520724BF30C830C144BF04680C600D
:10012000704700000023002400250026103A28BF55
:1001300078C1FBD8520728BF30C148BF0B60704759
:10014000732900F05785002070471FB51FBD10B5FB
:1001500010BD00F081FD1146FFF7F7FF00F0BCFA7B
:1001600000F09FFD03B4FFF7F2FF03BC00F0A4FD15
:100170000948804709480047FEE7FEE7FEE7FEE73B
:10018000FEE7FEE7FEE7FEE7FEE7FEE70448054977
:10019000034A054B70470000A9040000CD00000091
:1001A00080000010800200108000001000BF3F4956
:1001B000097D11F0200FFAD00A280CD10D213B4AFD
:1001C000117000BF3949097D11F0200FFAD00A21C2
:1001D000364A117001E035490870704710B5034682
:1001E0000C46D8B2FFF7E2FF184610BD00BF2F48FB
:1001F000007D10F0010FFAD02C480078704710B540
:100200000446FFF7F3FF03461846FFF7CFFF1846F3
:1002100010BD2748006840F0500025490860832041
:10022000224908730C200870002008710846007AE3
:1002300040F007000872F2201E4908701B48007B3E
:1002400020F0800019490873704700204FF04021CA
:1002500008671820C86002204860704702204FF0ED
:100260004021486001204860704700204FF0402145
:10027000486008468068704702214FF04022516074
:100280000121516000BF4FF0402189688142FAD3BB
:1002900000214FF040225160704700B503464FF4F3
:1002A0007A7103FB01F0FFF7E7FF00BD00C00040DB
:1002B00000C0024028C00040002100E0491C8142EB
:1002C000FCDB7047002107E0002200E0521C44F6EE
:1002D00020639A42FAD3491C8142F5D3704700004B
:1002E0000FB4044910B503AA029800F087FC10BCB3
:1002F0005DF814FB1400001070470000FFFFFFFFC3
:100300002DE9F047B1480068C0F3016003287CD1B3
:10031000AF48006810F0030006D0012833D002284F
:100320005FD003282ED100E000BFA8480068C0F3CA
:10033000074000F101044FF00201A648D0F8880000
:10034000C0F30E0000F10100A1FB0001A24B4FF031
:10035000000CA0FB037901FB039100FB0C1122466A
:100360006346384600F036FB05469C480068C0B23C
:1003700000F1010422464FF00003284600F02AFB5A
:10038000974908605DE091480068C0F3074000F1BC
:1003900001044FF002018F48D0F88800C0F30E002E
:1003A00000F10100A1FB00108E4A4FF0000CA1FBF0
:1003B000027900FB029001FB0C012246634638469D
:1003C00000F008FB054685480068C0B200F1010452
:1003D00022464FF00003284600F0FCFA80490860EE
:1003E0002FE07A480068C0F3074000F101044FF0A5
:1003F00002017848D0F88800C0F30E0000F1010037
:10040000A1FB00124FF4004000E01BE04FF000039E
:10041000A1FB007902FB009001FB03012246384654
:1004200000F0D8FA05466D480068C0B200F101043A
:1004300022464FF00003284600F0CCFA68490860D5
:1004400000BF2FE06248006810F0030006D00128CA
:1004500010D0022819D0032823D100E000BF5F4844
:100460000068C0B200F101005B49B1FBF0F05C49EB
:10047000086016E059480068C0B200F1010059490F
:10048000B1FBF0F0564908600BE054480068C0B278
:1004900000F101004FF40041B1FBF0F05049086059
:1004A00000BF00BFBDE8F08720204F4908604948E1
:1004B000D0F8A00110F0200F05D000BF4A48006816
:1004C00010F0400FFAD00320444908604FF00000BC
:1004D0004049C1F8A801454908604FF001003C4976
:1004E00008604348434908604FF0AA004249086049
:1004F0004FF0550008604FF00100404908604FF090
:10050000AA003D4908604FF055003249C1F88C00FF
:1005100000BF2E48006810F0806FFAD003203749E2
:1005200008604FF0AA002B49C1F88C004FF055002D
:100530003149086000BF2548006800F04070B0F104
:10054000407FF8D123202E4908604FF0AA002149AE
:10055000C1F8AC004FF055002A4908604FF0010087
:10056000294908604FF0AA00264908604FF055005D
:100570001849C1F8AC0000BF2448006810F4806F2F
:10058000FAD00320204908604FF0AA001149C1F8B1
:10059000AC004FF055001B49086000BF1B480068C5
:1005A00000F44070B0F5407FF8D11948194908604F
:1005B0004FF000000749C1F8C8010846006820F460
:1005C000704040F4804008607047000088C00F40D1
:1005D0000CC10F4000C00F4000093D0004C10F4096
:1005E00000000010001BB700A0C10F40ACC10F40BD
:1005F0006300050084C00F408CC00F4080C00F40D6
:10060000A4C00F40ACC00F40A0C00F40A8C00F4016
:10061000DE872804C4C00F400446214688A0FFF7A7
:100620005FFE00BFFEE72DE9F04104460D46174688
:100630004FF000086619FFF711FE67B105E04FF0B3
:1006400040208068B04200D904E07E48406910F044
:10065000100FF4D10CE005E04FF040208068B0426C
:1006600000D904E07748406910F0100FF4D000BFC3
:10067000FFF7FBFD8046601B404501D8B04502DD19
:1006800071A0FFF7C9FFBDE8F08110B5002400227A
:1006900005213220FFF7C7FFFFF7E0FD06E04FF02E
:1006A000402080684B2801D9022010BD6548406970
:1006B00010F0100FF3D1FFF7D8FD0446112C03DD25
:1006C000252C01DA0020F0E7412C03DD4B2C01DA68
:1006D0000120EAE70220E8E78CB0282102A800F018
:1006E0004DFA002000900190FFF7DEFEFFF708FEB4
:1006F00000F041F9FFF7A9FDFFF78BFD9EE051489F
:10070000006840F010004F4908600846C06940F09A
:100710001000C86144F25060FFF7AEFD4948006820
:1007200020F0100047490860FFF798FD05E04FF002
:1007300040208068282800D904E04248406910F031
:10074000100FF4D100BFFFF790FD4549086008463F
:1007500000680A2803D308460068282802D941A067
:10076000FFF75AFF002205215020FFF75CFF01220E
:1007700005215020FFF757FF00204349086019E08A
:10078000FFF783FF414908700846007818B1084612
:100790000078012806D13D48007802A93A4A12683B
:1007A000885402E03AA0FFF737FF37480068401C42
:1007B00035490860344800682828E1DB00203349C7
:1007C0000870314908602FE000203449086019E0C2
:1007D000324800682C490968082202FB010002A97E
:1007E000085C50B12D480068C0F107010120884025
:1007F0002649097808432549087028480068401CA4
:1008000026490860254800680828E1DB1F48007871
:100810001D4A12680DF8020000201C4908701A4891
:100820000068401C18490860174800680528CBDBA1
:10083000684600F0C1F81A48FFF71EFD5FE70000A8
:1008400025730A0000C00920636865636B526573F5
:10085000706F6E73652829204572726F72000000F8
:100860000C0000104661696C656420746F20636F32
:100870006D6D756E69636174652077697468207346
:10088000656E736F7200000004000010100000100D
:1008900044617461204572726F720000080000109C
:1008A00040420F004FF4FF01494AD1611146896966
:1008B00000F0010241EAC231454A9161114689695D
:1008C000C0F3400241EA0241414A916111468969FF
:1008D000C0F3800241EA42413D4A91611146896973
:1008E000C0F3C00241EA8241394A916111468969E7
:1008F000C0F3001241EAC241354A9161114689694B
:10090000C0F3401241EA0251314A916111468969AE
:10091000C0F3801241EA42512D4A91611146896922
:10092000C20941EA82512A4A9161704710B50446D2
:100930002046FFF7B7FF4FF0C0702549C8634FF05E
:10094000007088630120FFF7BDFC4FF00070204964
:10095000C86310BD10B53820FFF7E8FF0C20FFF783
:10096000E5FF0120FFF7E2FF0620FFF7DFFF802011
:10097000FFF7DCFF10BD10B54FF4FF00144908600D
:100980004FF060700862FFF7E5FF10BD10B5044638
:100990002046FFF787FF4FF0C0700D49C8634FF046
:1009A000207088630120FFF78DFC4FF0007008492C
:1009B000C8638010C86310BD10B5044603E02078FA
:1009C000FFF7E4FF641C20780028F8D110BD000078
:1009D00000C0092053EA020C00F069802DE9F04BB9
:1009E0004FF00006002B1FBFB3FA83F503FA05F49E
:1009F00024FA05F65E4012BF1643B2FA82F502FAF7
:100A000005F4C5F120051EBF22FA05FC44EA0C04DA
:100A1000203556EA044C4FEA144418BF641C4FF0CA
:100A200000084FF00009904271EB030C39D3002904
:100A300019BFB1FA81F701FA07F6B0FA80F700FAA8
:100A400007F6C7F120071EBF20FA07FC46EA0C068E
:100A50002037B6FBF4FCA7EB0507103F07F01F0B90
:100A6000CBF120060CFA0BFB2CFA06F644BFB3467A
:100A70000026202FA4BF5E464FF0000B5BEA060C59
:100A800008BF4FF0010B19EB0B09ABFB027C48EBE5
:100A90000608C01B06FB02CC0BFB03CC71EB0C0160
:100AA000C1E70B46024641464846BDE8F08B13B508
:100AB0004FF000004FF00001AFF30080BDE81C4094
:100AC00070472DE9F0410E46044600202062204682
:100AD000E168884730B3252805D0D4E90121904743
:100AE000206A401CF2E7E16820460027884705009D
:100AF00018D0A5F14100192802D820354FF400671D
:100B00003246294620462760FFF71AFB40B10128EC
:100B100004D0F61D26F007060836D8E7361DD6E7BE
:100B20002846DAE7206ABDE8F08170B50C46054634
:100B3000012A05D02878800600D5EA69002302E062
:100B4000012305E05B1C934202D2E05C0028F9D14E
:100B5000A869E618C01AA861286A184428622846BD
:100B6000AFF3008004E0D5E9012114F8010B9047B0
:100B7000B442F8D32846AFF3008070BD4FF00002B6
:100B800000B5134694469646203922BFA0E80C5083
:100B9000A0E80C50B1F12001BFF4F7AF090728BF5E
:100BA000A0E80C5048BF0CC05DF804EB890028BFDA
:100BB00040F8042B08BF704748BF20F8022B11F003
:100BC000804F18BF00F8012B70477047704770477F
:100BD00010B5436913B1AFF3008001E0FFF7A5FF43
:100BE000012010BD127800F124010A7000224A7021
:100BF0000122EDE711684FF0FF32E9E7074B70B5CE
:100C00000D467B4400F011F80446284600F020F819
:100C100010B14FF0FF3070BD204670BDD7F5FFFF1B
:100C200001694A1C02610878704700B58FB0CDE9B0
:100C300001310021059105497944CDE903101146A0
:100C40006846FFF73EFF0FB000BD0000E5FFFFFF65
:100C5000007B00F080007047754600F029F8AE4632
:100C600005006946534620F00700854618B020B5B8
:100C7000FFF78CFABDE820404FF000064FF0000768
:100C80004FF000084FF0000B21F00701AC46ACE834
:100C9000C009ACE8C009ACE8C009ACE8C0098D46A1
:100CA00070470446AFF300802046FFF75BFA000070
:100CB000004870471C00001001491820ABBEFEE739
:100CC00026000200E40C0000000000101C000000E0
:100CD00008010000000D00001C000010640200006C
:100CE0002401000000E1F505000000000000000004
:100CF00000000000000000000000000000000000F4
:040000050000017185
:00000001FF
